{
  "_format": "hh-sol-artifact-1",
  "contractName": "MyWalletDeployer",
  "sourceName": "contracts/MyWalletDeployer.sol",
  "abi": [
    {
      "inputs": [
        {
          "internalType": "contract IEntryPoint",
          "name": "entryPoint",
          "type": "address"
        },
        {
          "internalType": "address",
          "name": "owner",
          "type": "address"
        },
        {
          "internalType": "uint256",
          "name": "salt",
          "type": "uint256"
        }
      ],
      "name": "deployWallet",
      "outputs": [
        {
          "internalType": "contract MyWallet",
          "name": "",
          "type": "address"
        }
      ],
      "stateMutability": "nonpayable",
      "type": "function"
    },
    {
      "inputs": [
        {
          "internalType": "contract IEntryPoint",
          "name": "entryPoint",
          "type": "address"
        },
        {
          "internalType": "address",
          "name": "owner",
          "type": "address"
        },
        {
          "internalType": "uint256",
          "name": "salt",
          "type": "uint256"
        }
      ],
      "name": "getDeploymentAddress",
      "outputs": [
        {
          "internalType": "address",
          "name": "",
          "type": "address"
        }
      ],
      "stateMutability": "view",
      "type": "function"
    }
  ],
  "bytecode": "0x608060405234801561001057600080fd5b506125d5806100206000396000f3fe60806040523480156200001157600080fd5b50600436106200003a5760003560e01c80634861f39d146200003f578063ffb5b6af1462000075575b600080fd5b6200005d6004803603810190620000579190620002a9565b620000ab565b6040516200006c919062000316565b60405180910390f35b6200009360048036038101906200008d9190620002a9565b62000163565b604051620000a291906200039e565b60405180910390f35b60008060ff60f81b308460405180602001620000c790620001b1565b6020820181038252601f19601f820116604052508888604051602001620000f0929190620003f4565b60405160208183030381529060405260405160200162000112929190620004a4565b604051602081830303815290604052805190602001206040516020016200013d9493929190620005c1565b6040516020818303038152906040528051906020012060001c9050809150509392505050565b60008160001b84846040516200017990620001b1565b62000186929190620003f4565b8190604051809103906000f5905080158015620001a7573d6000803e3d6000fd5b5090509392505050565b611f88806200061883390190565b600080fd5b600073ffffffffffffffffffffffffffffffffffffffff82169050919050565b6000620001f182620001c4565b9050919050565b60006200020582620001e4565b9050919050565b6200021781620001f8565b81146200022357600080fd5b50565b60008135905062000237816200020c565b92915050565b6200024881620001e4565b81146200025457600080fd5b50565b60008135905062000268816200023d565b92915050565b6000819050919050565b62000283816200026e565b81146200028f57600080fd5b50565b600081359050620002a38162000278565b92915050565b600080600060608486031215620002c557620002c4620001bf565b5b6000620002d58682870162000226565b9350506020620002e88682870162000257565b9250506040620002fb8682870162000292565b9150509250925092565b6200031081620001e4565b82525050565b60006020820190506200032d600083018462000305565b92915050565b6000819050919050565b60006200035e620003586200035284620001c4565b62000333565b620001c4565b9050919050565b600062000372826200033d565b9050919050565b6000620003868262000365565b9050919050565b620003988162000379565b82525050565b6000602082019050620003b560008301846200038d565b92915050565b6000620003c8826200033d565b9050919050565b6000620003dc82620003bb565b9050919050565b620003ee81620003cf565b82525050565b60006040820190506200040b6000830185620003e3565b6200041a602083018462000305565b9392505050565b600081519050919050565b600081905092915050565b60005b83811015620004575780820151818401526020810190506200043a565b8381111562000467576000848401525b50505050565b60006200047a8262000421565b6200048681856200042c565b93506200049881856020860162000437565b80840191505092915050565b6000620004b282856200046d565b9150620004c082846200046d565b91508190509392505050565b60007fff0000000000000000000000000000000000000000000000000000000000000082169050919050565b6000819050919050565b620005176200051182620004cc565b620004f8565b82525050565b60008160601b9050919050565b600062000537826200051d565b9050919050565b60006200054b826200052a565b9050919050565b620005676200056182620001e4565b6200053e565b82525050565b6000819050919050565b6200058c62000586826200026e565b6200056d565b82525050565b6000819050919050565b6000819050919050565b620005bb620005b58262000592565b6200059c565b82525050565b6000620005cf828762000502565b600182019150620005e1828662000552565b601482019150620005f3828562000577565b602082019150620006058284620005a6565b6020820191508190509594505050505056fe60806040523480156200001157600080fd5b5060405162001f8838038062001f888339818101604052810190620000379190620001c7565b81600260006101000a81548173ffffffffffffffffffffffffffffffffffffffff021916908373ffffffffffffffffffffffffffffffffffffffff160217905550806001600c6101000a81548173ffffffffffffffffffffffffffffffffffffffff021916908373ffffffffffffffffffffffffffffffffffffffff16021790555060016000808373ffffffffffffffffffffffffffffffffffffffff1673ffffffffffffffffffffffffffffffffffffffff16815260200190815260200160002060006101000a81548160ff02191690831515021790555050506200020e565b600080fd5b600073ffffffffffffffffffffffffffffffffffffffff82169050919050565b60006200014a826200011d565b9050919050565b60006200015e826200013d565b9050919050565b620001708162000151565b81146200017c57600080fd5b50565b600081519050620001908162000165565b92915050565b620001a1816200013d565b8114620001ad57600080fd5b50565b600081519050620001c18162000196565b92915050565b60008060408385031215620001e157620001e062000118565b5b6000620001f1858286016200017f565b92505060206200020485828601620001b0565b9150509250929050565b611d6a806200021e6000396000f3fe6080604052600436106100c65760003560e01c80638da5cb5b1161007f578063affed0e011610059578063affed0e01461023a578063b0d691fe14610265578063c399ec8814610290578063d0cb75fa146102bb576100cd565b80638da5cb5b146101a9578063a230c524146101d4578063a9059cbb14610211576100cd565b80630565bb67146100d25780630825d1fc146100fb5780631b71bb6e146101245780634a58db191461014d5780634d44560d1461015757806380c5c7d014610180576100cd565b366100cd57005b600080fd5b3480156100de57600080fd5b506100f960048036038101906100f491906110f4565b6102e4565b005b34801561010757600080fd5b50610122600480360381019061011d91906111c3565b610341565b005b34801561013057600080fd5b5061014b60048036038101906101469190611246565b610387565b005b61015561039b565b005b34801561016357600080fd5b5061017e600480360381019061017991906112b1565b61041b565b005b34801561018c57600080fd5b506101a760048036038101906101a291906110f4565b61049b565b005b3480156101b557600080fd5b506101be6104f8565b6040516101cb9190611300565b60405180910390f35b3480156101e057600080fd5b506101fb60048036038101906101f69190611246565b61051e565b6040516102089190611336565b60405180910390f35b34801561021d57600080fd5b50610238600480360381019061023391906112b1565b61053e565b005b34801561024657600080fd5b5061024f610591565b60405161025c9190611360565b60405180910390f35b34801561027157600080fd5b5061027a6105c1565b60405161028791906113da565b60405180910390f35b34801561029c57600080fd5b506102a56105eb565b6040516102b29190611360565b60405180910390f35b3480156102c757600080fd5b506102e260048036038101906102dd91906114a1565b610673565b005b6102ec610785565b61033b848484848080601f016020809104026020016040519081016040528093929190818152602001838380828437600081840152601f19601f8201169050808301925050505050505061084d565b50505050565b6103496108d1565b610354848484610948565b60008480604001906103669190611531565b905014156103785761037784610a52565b5b61038181610b00565b50505050565b61038f610b9c565b61039881610ba6565b50565b60006103a56105c1565b73ffffffffffffffffffffffffffffffffffffffff16346040516103c8906115c5565b60006040518083038185875af1925050503d8060008114610405576040519150601f19603f3d011682016040523d82523d6000602084013e61040a565b606091505b505090508061041857600080fd5b50565b610423610785565b61042b6105c1565b73ffffffffffffffffffffffffffffffffffffffff1663205c287883836040518363ffffffff1660e01b81526004016104659291906115e9565b600060405180830381600087803b15801561047f57600080fd5b505af1158015610493573d6000803e3d6000fd5b505050505050565b6104a36108d1565b6104f2848484848080601f016020809104026020016040519081016040528093929190818152602001838380828437600081840152601f19601f8201169050808301925050505050505061084d565b50505050565b6001600c9054906101000a900473ffffffffffffffffffffffffffffffffffffffff1681565b60006020528060005260406000206000915054906101000a900460ff1681565b610546610785565b8173ffffffffffffffffffffffffffffffffffffffff166108fc829081150290604051600060405180830381858888f1935050505015801561058c573d6000803e3d6000fd5b505050565b6000600160009054906101000a90046bffffffffffffffffffffffff166bffffffffffffffffffffffff16905090565b6000600260009054906101000a900473ffffffffffffffffffffffffffffffffffffffff16905090565b60006105f56105c1565b73ffffffffffffffffffffffffffffffffffffffff166370a08231306040518263ffffffff1660e01b815260040161062d9190611300565b602060405180830381865afa15801561064a573d6000803e3d6000fd5b505050506040513d601f19601f8201168201806040525081019061066e9190611627565b905090565b61067b610785565b8181905084849050146106c3576040517f08c379a00000000000000000000000000000000000000000000000000000000081526004016106ba906116b1565b60405180910390fd5b60005b8484905081101561077e5761076b8585838181106106e7576106e66116d1565b5b90506020020160208101906106fc9190611246565b6000858585818110610711576107106116d1565b5b90506020028101906107239190611531565b8080601f016020809104026020016040519081016040528093929190818152602001838380828437600081840152601f19601f8201169050808301925050505050505061084d565b80806107769061172f565b9150506106c6565b5050505050565b6001600c9054906101000a900473ffffffffffffffffffffffffffffffffffffffff1673ffffffffffffffffffffffffffffffffffffffff163373ffffffffffffffffffffffffffffffffffffffff16148061080c57503073ffffffffffffffffffffffffffffffffffffffff163373ffffffffffffffffffffffffffffffffffffffff16145b61084b576040517f08c379a0000000000000000000000000000000000000000000000000000000008152600401610842906117c4565b60405180910390fd5b565b6000808473ffffffffffffffffffffffffffffffffffffffff1684846040516108769190611853565b60006040518083038185875af1925050503d80600081146108b3576040519150601f19603f3d011682016040523d82523d6000602084013e6108b8565b606091505b5091509150816108ca57805160208201fd5b5050505050565b6108d96105c1565b73ffffffffffffffffffffffffffffffffffffffff163373ffffffffffffffffffffffffffffffffffffffff1614610946576040517f08c379a000000000000000000000000000000000000000000000000000000000815260040161093d906118b6565b60405180910390fd5b565b600061095383610c66565b9050600115156000806109c2878061014001906109709190611531565b8080601f016020809104026020016040519081016040528093929190818152602001838380828437600081840152601f19601f8201169050808301925050505050505085610c9690919063ffffffff16565b73ffffffffffffffffffffffffffffffffffffffff1673ffffffffffffffffffffffffffffffffffffffff16815260200190815260200160002060009054906101000a900460ff16151514610a4c576040517f08c379a0000000000000000000000000000000000000000000000000000000008152600401610a4390611922565b60405180910390fd5b50505050565b80602001356001600081819054906101000a90046bffffffffffffffffffffffff1680929190610a819061195a565b91906101000a8154816bffffffffffffffffffffffff02191690836bffffffffffffffffffffffff1602179055506bffffffffffffffffffffffff1614610afd576040517f08c379a0000000000000000000000000000000000000000000000000000000008152600401610af4906119db565b60405180910390fd5b50565b60008114610b995760003373ffffffffffffffffffffffffffffffffffffffff16827fffffffffffffffffffffffffffffffffffffffffffffffffffffffffffffffff90604051610b50906115c5565b600060405180830381858888f193505050503d8060008114610b8e576040519150601f19603f3d011682016040523d82523d6000602084013e610b93565b606091505b50509050505b50565b610ba4610785565b565b8073ffffffffffffffffffffffffffffffffffffffff16600260009054906101000a900473ffffffffffffffffffffffffffffffffffffffff1673ffffffffffffffffffffffffffffffffffffffff167f450909c1478d09248269d4ad4fa8cba61ca3f50faed58c7aedefa51c7f62b83a60405160405180910390a380600260006101000a81548173ffffffffffffffffffffffffffffffffffffffff021916908373ffffffffffffffffffffffffffffffffffffffff16021790555050565b600081604051602001610c799190611a73565b604051602081830303815290604052805190602001209050919050565b6000806000610ca58585610cbd565b91509150610cb281610d0f565b819250505092915050565b600080604183511415610cff5760008060006020860151925060408601519150606086015160001a9050610cf387828585610ee4565b94509450505050610d08565b60006002915091505b9250929050565b60006004811115610d2357610d22611a99565b5b816004811115610d3657610d35611a99565b5b1415610d4157610ee1565b60016004811115610d5557610d54611a99565b5b816004811115610d6857610d67611a99565b5b1415610da9576040517f08c379a0000000000000000000000000000000000000000000000000000000008152600401610da090611b14565b60405180910390fd5b60026004811115610dbd57610dbc611a99565b5b816004811115610dd057610dcf611a99565b5b1415610e11576040517f08c379a0000000000000000000000000000000000000000000000000000000008152600401610e0890611b80565b60405180910390fd5b60036004811115610e2557610e24611a99565b5b816004811115610e3857610e37611a99565b5b1415610e79576040517f08c379a0000000000000000000000000000000000000000000000000000000008152600401610e7090611c12565b60405180910390fd5b600480811115610e8c57610e8b611a99565b5b816004811115610e9f57610e9e611a99565b5b1415610ee0576040517f08c379a0000000000000000000000000000000000000000000000000000000008152600401610ed790611ca4565b60405180910390fd5b5b50565b6000807f7fffffffffffffffffffffffffffffff5d576e7357a4501ddfe92f46681b20a08360001c1115610f1f576000600391509150610fe8565b601b8560ff1614158015610f375750601c8560ff1614155b15610f49576000600491509150610fe8565b600060018787878760405160008152602001604052604051610f6e9493929190611cef565b6020604051602081039080840390855afa158015610f90573d6000803e3d6000fd5b505050602060405103519050600073ffffffffffffffffffffffffffffffffffffffff168173ffffffffffffffffffffffffffffffffffffffff161415610fdf57600060019250925050610fe8565b80600092509250505b94509492505050565b600080fd5b600080fd5b600073ffffffffffffffffffffffffffffffffffffffff82169050919050565b600061102682610ffb565b9050919050565b6110368161101b565b811461104157600080fd5b50565b6000813590506110538161102d565b92915050565b6000819050919050565b61106c81611059565b811461107757600080fd5b50565b60008135905061108981611063565b92915050565b600080fd5b600080fd5b600080fd5b60008083601f8401126110b4576110b361108f565b5b8235905067ffffffffffffffff8111156110d1576110d0611094565b5b6020830191508360018202830111156110ed576110ec611099565b5b9250929050565b6000806000806060858703121561110e5761110d610ff1565b5b600061111c87828801611044565b945050602061112d8782880161107a565b935050604085013567ffffffffffffffff81111561114e5761114d610ff6565b5b61115a8782880161109e565b925092505092959194509250565b600080fd5b6000610160828403121561118457611183611168565b5b81905092915050565b6000819050919050565b6111a08161118d565b81146111ab57600080fd5b50565b6000813590506111bd81611197565b92915050565b600080600080608085870312156111dd576111dc610ff1565b5b600085013567ffffffffffffffff8111156111fb576111fa610ff6565b5b6112078782880161116d565b9450506020611218878288016111ae565b935050604061122987828801611044565b925050606061123a8782880161107a565b91505092959194509250565b60006020828403121561125c5761125b610ff1565b5b600061126a84828501611044565b91505092915050565b600061127e82610ffb565b9050919050565b61128e81611273565b811461129957600080fd5b50565b6000813590506112ab81611285565b92915050565b600080604083850312156112c8576112c7610ff1565b5b60006112d68582860161129c565b92505060206112e78582860161107a565b9150509250929050565b6112fa8161101b565b82525050565b600060208201905061131560008301846112f1565b92915050565b60008115159050919050565b6113308161131b565b82525050565b600060208201905061134b6000830184611327565b92915050565b61135a81611059565b82525050565b60006020820190506113756000830184611351565b92915050565b6000819050919050565b60006113a061139b61139684610ffb565b61137b565b610ffb565b9050919050565b60006113b282611385565b9050919050565b60006113c4826113a7565b9050919050565b6113d4816113b9565b82525050565b60006020820190506113ef60008301846113cb565b92915050565b60008083601f84011261140b5761140a61108f565b5b8235905067ffffffffffffffff81111561142857611427611094565b5b60208301915083602082028301111561144457611443611099565b5b9250929050565b60008083601f8401126114615761146061108f565b5b8235905067ffffffffffffffff81111561147e5761147d611094565b5b60208301915083602082028301111561149a57611499611099565b5b9250929050565b600080600080604085870312156114bb576114ba610ff1565b5b600085013567ffffffffffffffff8111156114d9576114d8610ff6565b5b6114e5878288016113f5565b9450945050602085013567ffffffffffffffff81111561150857611507610ff6565b5b6115148782880161144b565b925092505092959194509250565b600080fd5b600080fd5b600080fd5b6000808335600160200384360303811261154e5761154d611522565b5b80840192508235915067ffffffffffffffff8211156115705761156f611527565b5b60208301925060018202360383131561158c5761158b61152c565b5b509250929050565b600081905092915050565b50565b60006115af600083611594565b91506115ba8261159f565b600082019050919050565b60006115d0826115a2565b9150819050919050565b6115e381611273565b82525050565b60006040820190506115fe60008301856115da565b61160b6020830184611351565b9392505050565b60008151905061162181611063565b92915050565b60006020828403121561163d5761163c610ff1565b5b600061164b84828501611612565b91505092915050565b600082825260208201905092915050565b7f77726f6e67206172726179206c656e6774687300000000000000000000000000600082015250565b600061169b601383611654565b91506116a682611665565b602082019050919050565b600060208201905081810360008301526116ca8161168e565b9050919050565b7f4e487b7100000000000000000000000000000000000000000000000000000000600052603260045260246000fd5b7f4e487b7100000000000000000000000000000000000000000000000000000000600052601160045260246000fd5b600061173a82611059565b91507fffffffffffffffffffffffffffffffffffffffffffffffffffffffffffffffff82141561176d5761176c611700565b5b600182019050919050565b7f6f6e6c79206f776e657200000000000000000000000000000000000000000000600082015250565b60006117ae600a83611654565b91506117b982611778565b602082019050919050565b600060208201905081810360008301526117dd816117a1565b9050919050565b600081519050919050565b60005b8381101561180d5780820151818401526020810190506117f2565b8381111561181c576000848401525b50505050565b600061182d826117e4565b6118378185611594565b93506118478185602086016117ef565b80840191505092915050565b600061185f8284611822565b915081905092915050565b7f77616c6c65743a206e6f742066726f6d20456e747279506f696e740000000000600082015250565b60006118a0601b83611654565b91506118ab8261186a565b602082019050919050565b600060208201905081810360008301526118cf81611893565b9050919050565b7f77616c6c65743a2077726f6e67207369676e6174757265000000000000000000600082015250565b600061190c601783611654565b9150611917826118d6565b602082019050919050565b6000602082019050818103600083015261193b816118ff565b9050919050565b60006bffffffffffffffffffffffff82169050919050565b600061196582611942565b91506bffffffffffffffffffffffff82141561198457611983611700565b5b600182019050919050565b7f77616c6c65743a20696e76616c6964206e6f6e63650000000000000000000000600082015250565b60006119c5601583611654565b91506119d08261198f565b602082019050919050565b600060208201905081810360008301526119f4816119b8565b9050919050565b600081905092915050565b7f19457468657265756d205369676e6564204d6573736167653a0a333200000000600082015250565b6000611a3c601c836119fb565b9150611a4782611a06565b601c82019050919050565b6000819050919050565b611a6d611a688261118d565b611a52565b82525050565b6000611a7e82611a2f565b9150611a8a8284611a5c565b60208201915081905092915050565b7f4e487b7100000000000000000000000000000000000000000000000000000000600052602160045260246000fd5b7f45434453413a20696e76616c6964207369676e61747572650000000000000000600082015250565b6000611afe601883611654565b9150611b0982611ac8565b602082019050919050565b60006020820190508181036000830152611b2d81611af1565b9050919050565b7f45434453413a20696e76616c6964207369676e6174757265206c656e67746800600082015250565b6000611b6a601f83611654565b9150611b7582611b34565b602082019050919050565b60006020820190508181036000830152611b9981611b5d565b9050919050565b7f45434453413a20696e76616c6964207369676e6174757265202773272076616c60008201527f7565000000000000000000000000000000000000000000000000000000000000602082015250565b6000611bfc602283611654565b9150611c0782611ba0565b604082019050919050565b60006020820190508181036000830152611c2b81611bef565b9050919050565b7f45434453413a20696e76616c6964207369676e6174757265202776272076616c60008201527f7565000000000000000000000000000000000000000000000000000000000000602082015250565b6000611c8e602283611654565b9150611c9982611c32565b604082019050919050565b60006020820190508181036000830152611cbd81611c81565b9050919050565b611ccd8161118d565b82525050565b600060ff82169050919050565b611ce981611cd3565b82525050565b6000608082019050611d046000830187611cc4565b611d116020830186611ce0565b611d1e6040830185611cc4565b611d2b6060830184611cc4565b9594505050505056fea2646970667358221220d7e41e131a9d4908a29e0f94763f33f9ce09f285af4de6e633eaf3dda3582feb64736f6c634300080c0033a2646970667358221220b21d30cecd1fedaa5035710d3227409e16a4f8f626e9d081cf60ea41d753f2ee64736f6c634300080c0033",
  "linkReferences": {},
  "deployedLinkReferences": {}
}