{
  "_format": "hh-sol-artifact-1",
  "contractName": "Trust",
  "sourceName": "contracts/Trust.sol",
  "abi": [
    {
      "inputs": [],
      "stateMutability": "nonpayable",
      "type": "constructor"
    },
    {
      "anonymous": false,
      "inputs": [
        {
          "indexed": false,
          "internalType": "address",
          "name": "owner",
          "type": "address"
        },
        {
          "indexed": false,
          "internalType": "string",
          "name": "dataUri",
          "type": "string"
        }
      ],
      "name": "MediaPost",
      "type": "event"
    },
    {
      "inputs": [],
      "name": "owner",
      "outputs": [
        {
          "internalType": "address",
          "name": "",
          "type": "address"
        }
      ],
      "stateMutability": "view",
      "type": "function"
    },
    {
      "inputs": [
        {
          "internalType": "string",
          "name": "dataUri",
          "type": "string"
        }
      ],
      "name": "postMedia",
      "outputs": [],
      "stateMutability": "nonpayable",
      "type": "function"
    }
  ],
  "bytecode": "0x608060405234801561001057600080fd5b50336000806101000a81548173ffffffffffffffffffffffffffffffffffffffff021916908373ffffffffffffffffffffffffffffffffffffffff16021790555061039e806100606000396000f3fe608060405234801561001057600080fd5b50600436106100365760003560e01c80638da5cb5b1461003b578063bb8bf21e14610059575b600080fd5b610043610075565b60405161005091906101c6565b60405180910390f35b610073600480360381019061006e919061013d565b610099565b005b60008054906101000a900473ffffffffffffffffffffffffffffffffffffffff1681565b7f58881a7982a52bbdd26678d846afc0c67adb1b37451ea0820fa308691e9daaa233826040516100ca9291906101e1565b60405180910390a150565b60006100e86100e384610236565b610211565b90508281526020810184848401111561010057600080fd5b61010b8482856102b5565b509392505050565b600082601f83011261012457600080fd5b81356101348482602086016100d5565b91505092915050565b60006020828403121561014f57600080fd5b600082013567ffffffffffffffff81111561016957600080fd5b61017584828501610113565b91505092915050565b61018781610283565b82525050565b600061019882610267565b6101a28185610272565b93506101b28185602086016102c4565b6101bb81610357565b840191505092915050565b60006020820190506101db600083018461017e565b92915050565b60006040820190506101f6600083018561017e565b8181036020830152610208818461018d565b90509392505050565b600061021b61022c565b905061022782826102f7565b919050565b6000604051905090565b600067ffffffffffffffff82111561025157610250610328565b5b61025a82610357565b9050602081019050919050565b600081519050919050565b600082825260208201905092915050565b600061028e82610295565b9050919050565b600073ffffffffffffffffffffffffffffffffffffffff82169050919050565b82818337600083830152505050565b60005b838110156102e25780820151818401526020810190506102c7565b838111156102f1576000848401525b50505050565b61030082610357565b810181811067ffffffffffffffff8211171561031f5761031e610328565b5b80604052505050565b7f4e487b7100000000000000000000000000000000000000000000000000000000600052604160045260246000fd5b6000601f19601f830116905091905056fea264697066735822122050a77860e84879e3801e79e03304ce0a67ce6826a2f23e640abd7446a3f0a27f64736f6c63430008040033",
  "linkReferences": {},
  "deployedLinkReferences": {}
}